{
  "transactions": [
    {
      "hash": "0x65d710373c369b2a8bf2bfdc94b483faabb3bf20e7fe5409bac3d71710008be1",
      "transactionType": "CALL",
      "contractName": null,
      "contractAddress": "0x07088757f513c5e48aebb66f0a67f76260a737b4",
      "function": "approve(address,uint256)",
      "arguments": [
        "0x000000000022D473030F116dDEE9F6B43aC78BA3",
        "115792089237316195423570985008687907853269984665640564039457584007913129639935"
      ],
      "transaction": {
        "from": "0x8cf2e7649d788f83fa32effa0386724f6fd78bd5",
        "to": "0x07088757f513c5e48aebb66f0a67f76260a737b4",
        "gas": "0x116d9",
        "value": "0x0",
        "input": "0x095ea7b3000000000000000000000000000000000022d473030f116ddee9f6b43ac78ba3ffffffffffffffffffffffffffffffffffffffffffffffffffffffffffffffff",
        "nonce": "0x16",
        "chainId": "0xaa36a7"
      },
      "additionalContracts": [],
      "isFixedGasLimit": false
    }
  ],
  "receipts": [
    {
      "status": "0x1",
      "cumulativeGasUsed": "0xbeab",
      "logs": [
        {
          "address": "0x07088757f513c5e48aebb66f0a67f76260a737b4",
          "topics": [
            "0x8c5be1e5ebec7d5bd14f71427d1e84f3dd0314c0f7b2291e5b200ac8c7c3b925",
            "0x0000000000000000000000008cf2e7649d788f83fa32effa0386724f6fd78bd5",
            "0x000000000000000000000000000000000022d473030f116ddee9f6b43ac78ba3"
          ],
          "data": "0xffffffffffffffffffffffffffffffffffffffffffffffffffffffffffffffff",
          "blockHash": "0x5a7b6f82267881e89d9b64c168122ec9e5bc6b81c3bfcb34539a9beb6abb420f",
          "blockNumber": "0x8ce17e",
          "blockTimestamp": "0x68cccab1",
          "transactionHash": "0x65d710373c369b2a8bf2bfdc94b483faabb3bf20e7fe5409bac3d71710008be1",
          "transactionIndex": "0x0",
          "logIndex": "0x0",
          "removed": false
        }
      ],
      "logsBloom": "0x00000000000000000000000000000000000000002000000000000000000000000000000000000000000000000000000000000000800000000010000000200000000000000040000000004000000000000000000000000800000000000000000000000000000000000000000000000000000000000000000000000000000000000000000000000000000000000000000000000000000010000000000000000000020000000000000000000000000000000000000001000000000000000000000000000000000000000000000000000000000000000000000000000000080000000010000000000000000000000000000000000000000000000000000000000000",
      "type": "0x2",
      "transactionHash": "0x65d710373c369b2a8bf2bfdc94b483faabb3bf20e7fe5409bac3d71710008be1",
      "transactionIndex": "0x0",
      "blockHash": "0x5a7b6f82267881e89d9b64c168122ec9e5bc6b81c3bfcb34539a9beb6abb420f",
      "blockNumber": "0x8ce17e",
      "gasUsed": "0xbeab",
      "effectiveGasPrice": "0xf4248",
      "blobGasPrice": "0xd",
      "from": "0x8cf2e7649d788f83fa32effa0386724f6fd78bd5",
      "to": "0x07088757f513c5e48aebb66f0a67f76260a737b4",
      "contractAddress": null
    }
  ],
  "libraries": [],
  "pending": [],
  "returns": {},
  "timestamp": 1758271473539,
  "chain": 11155111,
  "commit": "2c4334f"
}