{
  "transactions": [
    {
      "hash": "0xe941da1f720c8b42c913020f4705ac349cb4aa3b3ecbe0d48d9fbe0f56aef8da",
      "transactionType": "CALL",
      "contractName": null,
      "contractAddress": "0x07088757f513c5e48aebb66f0a67f76260a737b4",
      "function": "approve(address,uint256)",
      "arguments": [
        "0x000000000022D473030F116dDEE9F6B43aC78BA3",
        "115792089237316195423570985008687907853269984665640564039457584007913129639935"
      ],
      "transaction": {
        "from": "0x8cf2e7649d788f83fa32effa0386724f6fd78bd5",
        "to": "0x07088757f513c5e48aebb66f0a67f76260a737b4",
        "gas": "0x116d9",
        "value": "0x0",
        "input": "0x095ea7b3000000000000000000000000000000000022d473030f116ddee9f6b43ac78ba3ffffffffffffffffffffffffffffffffffffffffffffffffffffffffffffffff",
        "nonce": "0xc",
        "chainId": "0xaa36a7"
      },
      "additionalContracts": [],
      "isFixedGasLimit": false
    }
  ],
  "receipts": [
    {
      "status": "0x1",
      "cumulativeGasUsed": "0xbeab",
      "logs": [
        {
          "address": "0x07088757f513c5e48aebb66f0a67f76260a737b4",
          "topics": [
            "0x8c5be1e5ebec7d5bd14f71427d1e84f3dd0314c0f7b2291e5b200ac8c7c3b925",
            "0x0000000000000000000000008cf2e7649d788f83fa32effa0386724f6fd78bd5",
            "0x000000000000000000000000000000000022d473030f116ddee9f6b43ac78ba3"
          ],
          "data": "0xffffffffffffffffffffffffffffffffffffffffffffffffffffffffffffffff",
          "blockHash": "0xe78c2369a2850265358aa069a054da93a46f92a7cc08101d5669a96020df2274",
          "blockNumber": "0x8ce177",
          "blockTimestamp": "0x68ccca88",
          "transactionHash": "0xe941da1f720c8b42c913020f4705ac349cb4aa3b3ecbe0d48d9fbe0f56aef8da",
          "transactionIndex": "0x0",
          "logIndex": "0x0",
          "removed": false
        }
      ],
      "logsBloom": "0x00000000000000000000000000000000000000002000000000000000000000000000000000000000000000000000000000000000800000000010000000200000000000000040000000004000000000000000000000000800000000000000000000000000000000000000000000000000000000000000000000000000000000000000000000000000000000000000000000000000000010000000000000000000020000000000000000000000000000000000000001000000000000000000000000000000000000000000000000000000000000000000000000000000080000000010000000000000000000000000000000000000000000000000000000000000",
      "type": "0x2",
      "transactionHash": "0xe941da1f720c8b42c913020f4705ac349cb4aa3b3ecbe0d48d9fbe0f56aef8da",
      "transactionIndex": "0x0",
      "blockHash": "0xe78c2369a2850265358aa069a054da93a46f92a7cc08101d5669a96020df2274",
      "blockNumber": "0x8ce177",
      "gasUsed": "0xbeab",
      "effectiveGasPrice": "0xf424f",
      "blobGasPrice": "0x1f",
      "from": "0x8cf2e7649d788f83fa32effa0386724f6fd78bd5",
      "to": "0x07088757f513c5e48aebb66f0a67f76260a737b4",
      "contractAddress": null
    }
  ],
  "libraries": [],
  "pending": [],
  "returns": {},
  "timestamp": 1758270817503,
  "chain": 11155111,
  "commit": "2c4334f"
}