{
  "transactions": [
    {
      "hash": null,
      "transactionType": "CALL",
      "contractName": null,
      "contractAddress": "0x4337084d9e255ff0702461cf8895ce9e3b5ff108",
      "function": "handleOps((address,uint256,bytes,bytes,bytes32,uint256,bytes32,bytes,bytes)[],address)",
      "arguments": [
        "[(0x8CF2e7649D788f83Fa32EfFa0386724f6fD78BD5, 0, 0x, 0xb61d27f600000000000000000000000007088757f513c5e48aebb66f0a67f76260a737b4000000000000000000000000000000000000000000000000000000000000000000000000000000000000000000000000000000000000000000000000000000600000000000000000000000000000000000000000000000000000000000000044a9059cbb000000000000000000000000b6d4805bf6943c5875c0c7b67eda24b2bdacbf6e0000000000000000000000000000000000000000000000000de0b6b3a764000000000000000000000000000000000000000000000000000000000000, 0x000000000000000000000000000124f80000000000000000000000000000c350, 50000, 0x0000000000000000000000003b9aca000000000000000000000000003b9aca00, 0xc413050a7f581bdea919d6f6093476d44fd50e1d000000000000000000000000000c35000000000000000000000000000000c350000000000000000000000000000000000000000000000000000000000000000000000000000000000000000007088757f513c5e48aebb66f0a67f76260a737b40000000000000000000000000000000000000000000000000000000000000064000000000000000000000000000000000000000000000000000000000000003c000000000000000000000000000000000000000000000000000000000000000000000000000000000000000007088757f513c5e48aebb66f0a67f76260a737b4000000000000000000000000ffffffffffffffffffffffffffffffffffffffff0000000000000000000000000000000000000000000000000000000068ccd88a0000000000000000000000000000000000000000000000000000000000000000000000000000000000000000c413050a7f581bdea919d6f6093476d44fd50e1d0000000000000000000000000000000000000000000000000000000068ccd88a00000000000000000000000000000000000000000000000000000000000001800000000000000000000000000000000000000000000000000000000000000041b868486ce268b83d81a19dbc62e8705e1fea7c5c73217549854ab7fcc7ff6bc93817252ab9920765c82cf52a12b2f28acd8c4725f76af7a9ab616aab053162041b00000000000000000000000000000000000000000000000000000000000000, 0xa0a1a83877f6ecc03ed357b94cdd0065b6ac434a41c1b4971c46e0fb3299d7fb32fed686cbb4f076a7ac1257984219b740cdccb40a65d75da33be1f40bebe5a41c)]",
        "0x95c6771491b0CF0f47Dc3AEbb0E785408E742fFC"
      ],
      "transaction": {
        "from": "0x9c3b19ebbf0f1311bb8596f96b8dc1bb19d6cc1a",
        "to": "0x4337084d9e255ff0702461cf8895ce9e3b5ff108",
        "gas": "0xed851",
        "value": "0x0",
        "input": "0x765e827f000000000000000000000000000000000000000000000000000000000000004000000000000000000000000095c6771491b0cf0f47dc3aebb0e785408e742ffc000000000000000000000000000000000000000000000000000000000000000100000000000000000000000000000000000000000000000000000000000000200000000000000000000000008cf2e7649d788f83fa32effa0386724f6fd78bd5000000000000000000000000000000000000000000000000000000000000000000000000000000000000000000000000000000000000000000000000000001200000000000000000000000000000000000000000000000000000000000000140000000000000000000000000000124f80000000000000000000000000000c350000000000000000000000000000000000000000000000000000000000000c3500000000000000000000000003b9aca000000000000000000000000003b9aca00000000000000000000000000000000000000000000000000000000000000026000000000000000000000000000000000000000000000000000000000000004c0000000000000000000000000000000000000000000000000000000000000000000000000000000000000000000000000000000000000000000000000000000e4b61d27f600000000000000000000000007088757f513c5e48aebb66f0a67f76260a737b4000000000000000000000000000000000000000000000000000000000000000000000000000000000000000000000000000000000000000000000000000000600000000000000000000000000000000000000000000000000000000000000044a9059cbb000000000000000000000000b6d4805bf6943c5875c0c7b67eda24b2bdacbf6e0000000000000000000000000000000000000000000000000de0b6b3a764000000000000000000000000000000000000000000000000000000000000000000000000000000000000000000000000000000000000000000000000000000000000000000000000000000000000000000000000000000000234c413050a7f581bdea919d6f6093476d44fd50e1d000000000000000000000000000c35000000000000000000000000000000c350000000000000000000000000000000000000000000000000000000000000000000000000000000000000000007088757f513c5e48aebb66f0a67f76260a737b40000000000000000000000000000000000000000000000000000000000000064000000000000000000000000000000000000000000000000000000000000003c000000000000000000000000000000000000000000000000000000000000000000000000000000000000000007088757f513c5e48aebb66f0a67f76260a737b4000000000000000000000000ffffffffffffffffffffffffffffffffffffffff0000000000000000000000000000000000000000000000000000000068ccd88a0000000000000000000000000000000000000000000000000000000000000000000000000000000000000000c413050a7f581bdea919d6f6093476d44fd50e1d0000000000000000000000000000000000000000000000000000000068ccd88a00000000000000000000000000000000000000000000000000000000000001800000000000000000000000000000000000000000000000000000000000000041b868486ce268b83d81a19dbc62e8705e1fea7c5c73217549854ab7fcc7ff6bc93817252ab9920765c82cf52a12b2f28acd8c4725f76af7a9ab616aab053162041b000000000000000000000000000000000000000000000000000000000000000000000000000000000000000000000000000000000000000000000000000000000000000000000000000041a0a1a83877f6ecc03ed357b94cdd0065b6ac434a41c1b4971c46e0fb3299d7fb32fed686cbb4f076a7ac1257984219b740cdccb40a65d75da33be1f40bebe5a41c00000000000000000000000000000000000000000000000000000000000000",
        "nonce": "0x0",
        "chainId": "0xaa36a7"
      },
      "additionalContracts": [],
      "isFixedGasLimit": false
    }
  ],
  "receipts": [],
  "libraries": [],
  "pending": [],
  "returns": {},
  "timestamp": 1758270985593,
  "chain": 11155111,
  "commit": "2c4334f"
}