{
  "transactions": [
    {
      "hash": "0x6b007e324142487c9c1d3e883c2198f16511bdc5411b3de22e31eda6ecf68469",
      "transactionType": "CALL",
      "contractName": null,
      "contractAddress": "0x07088757f513c5e48aebb66f0a67f76260a737b4",
      "function": "approve(address,uint256)",
      "arguments": [
        "0xE03A1074c86CFeDd5C142C4F04F1a1536e203543",
        "115792089237316195423570985008687907853269984665640564039457584007913129639935"
      ],
      "transaction": {
        "from": "0x20f325b0d94a084ad6d0eafa877f3b7cc94a5184",
        "to": "0x07088757f513c5e48aebb66f0a67f76260a737b4",
        "gas": "0x107ae",
        "value": "0x0",
        "input": "0x095ea7b3000000000000000000000000e03a1074c86cfedd5c142c4f04f1a1536e203543ffffffffffffffffffffffffffffffffffffffffffffffffffffffffffffffff",
        "nonce": "0x0",
        "chainId": "0xaa36a7"
      },
      "additionalContracts": [],
      "isFixedGasLimit": false
    },
    {
      "hash": "0x00ee9f54f7f37b01f4f93b9f47b8be4fb832f5ae2182be2ad0f8ba7548428d93",
      "transactionType": "CALL",
      "contractName": null,
      "contractAddress": "0x07088757f513c5e48aebb66f0a67f76260a737b4",
      "function": "approve(address,uint256)",
      "arguments": [
        "0x59668e475A7498aB1BfF12b5D55b9A075B92349F",
        "115792089237316195423570985008687907853269984665640564039457584007913129639935"
      ],
      "transaction": {
        "from": "0x20f325b0d94a084ad6d0eafa877f3b7cc94a5184",
        "to": "0x07088757f513c5e48aebb66f0a67f76260a737b4",
        "gas": "0x107ae",
        "value": "0x0",
        "input": "0x095ea7b300000000000000000000000059668e475a7498ab1bff12b5d55b9a075b92349fffffffffffffffffffffffffffffffffffffffffffffffffffffffffffffffff",
        "nonce": "0x1",
        "chainId": "0xaa36a7"
      },
      "additionalContracts": [],
      "isFixedGasLimit": false
    },
    {
      "hash": "0xfb98b82a50f4a943cdb80394afdd75e0df9159faa03c7ee0854169764b29ab5d",
      "transactionType": "CALL",
      "contractName": null,
      "contractAddress": "0x59668e475a7498ab1bff12b5d55b9a075b92349f",
      "function": "modifyLiquidity((address,address,uint24,int24,address),(int24,int24,int256,bytes32),bytes)",
      "arguments": [
        "(0x0000000000000000000000000000000000000000, 0x07088757F513C5E48aeBb66f0a67F76260A737B4, 100, 60, 0x0000000000000000000000000000000000000000)",
        "(-60, 60, 100000000000000000, 0x0000000000000000000000000000000000000000000000000000000000000000)",
        "0x"
      ],
      "transaction": {
        "from": "0x20f325b0d94a084ad6d0eafa877f3b7cc94a5184",
        "to": "0x59668e475a7498ab1bff12b5d55b9a075b92349f",
        "gas": "0x68e1b",
        "value": "0x12bab257e59e9",
        "input": "0x5a6bcfda000000000000000000000000000000000000000000000000000000000000000000000000000000000000000007088757f513c5e48aebb66f0a67f76260a737b40000000000000000000000000000000000000000000000000000000000000064000000000000000000000000000000000000000000000000000000000000003c0000000000000000000000000000000000000000000000000000000000000000ffffffffffffffffffffffffffffffffffffffffffffffffffffffffffffffc4000000000000000000000000000000000000000000000000000000000000003c000000000000000000000000000000000000000000000000016345785d8a0000000000000000000000000000000000000000000000000000000000000000000000000000000000000000000000000000000000000000000000000000000001400000000000000000000000000000000000000000000000000000000000000000",
        "nonce": "0x2",
        "chainId": "0xaa36a7"
      },
      "additionalContracts": [],
      "isFixedGasLimit": false
    }
  ],
  "receipts": [
    {
      "status": "0x1",
      "cumulativeGasUsed": "0xbee7",
      "logs": [
        {
          "address": "0x07088757f513c5e48aebb66f0a67f76260a737b4",
          "topics": [
            "0x8c5be1e5ebec7d5bd14f71427d1e84f3dd0314c0f7b2291e5b200ac8c7c3b925",
            "0x00000000000000000000000020f325b0d94a084ad6d0eafa877f3b7cc94a5184",
            "0x000000000000000000000000e03a1074c86cfedd5c142c4f04f1a1536e203543"
          ],
          "data": "0xffffffffffffffffffffffffffffffffffffffffffffffffffffffffffffffff",
          "blockHash": "0x1599a071afe1119ad79d42837ed46a63afbbebe4e1235ed97e1c4d2e091da2d9",
          "blockNumber": "0x8ce171",
          "blockTimestamp": "0x68ccca6e",
          "transactionHash": "0x6b007e324142487c9c1d3e883c2198f16511bdc5411b3de22e31eda6ecf68469",
          "transactionIndex": "0x0",
          "logIndex": "0x0",
          "removed": false
        }
      ],
      "logsBloom": "0x00000000000000000000000000000000000100002000000000000000000000000000000000000000000000000000000000000000000000000000000000200000000000000040000000000000000000000000000000000000000000000000000000000000000000000000000080000000000000000000000000000000000000000000000000000000000010000000000000000000000010000000002000000000020000000000000000000000000000000000000000000000000000000000000000000000000000000000000000000000000000000000000000001000080000000010000000000000000000000000000000000000000000000000000000000000",
      "type": "0x2",
      "transactionHash": "0x6b007e324142487c9c1d3e883c2198f16511bdc5411b3de22e31eda6ecf68469",
      "transactionIndex": "0x0",
      "blockHash": "0x1599a071afe1119ad79d42837ed46a63afbbebe4e1235ed97e1c4d2e091da2d9",
      "blockNumber": "0x8ce171",
      "gasUsed": "0xbee7",
      "effectiveGasPrice": "0xf425d",
      "blobGasPrice": "0x40",
      "from": "0x20f325b0d94a084ad6d0eafa877f3b7cc94a5184",
      "to": "0x07088757f513c5e48aebb66f0a67f76260a737b4",
      "contractAddress": null
    },
    {
      "status": "0x1",
      "cumulativeGasUsed": "0xbee7",
      "logs": [
        {
          "address": "0x07088757f513c5e48aebb66f0a67f76260a737b4",
          "topics": [
            "0x8c5be1e5ebec7d5bd14f71427d1e84f3dd0314c0f7b2291e5b200ac8c7c3b925",
            "0x00000000000000000000000020f325b0d94a084ad6d0eafa877f3b7cc94a5184",
            "0x00000000000000000000000059668e475a7498ab1bff12b5d55b9a075b92349f"
          ],
          "data": "0xffffffffffffffffffffffffffffffffffffffffffffffffffffffffffffffff",
          "blockHash": "0xa64086c56846371d4d010a42f7c11f19c6cd159fd3685e8abf21b1eaf714ff0e",
          "blockNumber": "0x8ce172",
          "blockTimestamp": "0x68ccca6e",
          "transactionHash": "0x00ee9f54f7f37b01f4f93b9f47b8be4fb832f5ae2182be2ad0f8ba7548428d93",
          "transactionIndex": "0x0",
          "logIndex": "0x0",
          "removed": false
        }
      ],
      "logsBloom": "0x00000000000000000000000000000000000100002000000000000000000000000000000000000000000000000000000000000000000000000000000080200000000000000040000000000000000000000000200000000000000000000000000000000000000000000000000000000000000000000000000000000000000000000000000000000000000000000000000000000000000010000000002000000000020000000000000000000000000000000000000000000000000000000000000000000000000000000000000000000004000000000000000000000000080000000010000000000000000000000000000000000000000000000000000000000000",
      "type": "0x2",
      "transactionHash": "0x00ee9f54f7f37b01f4f93b9f47b8be4fb832f5ae2182be2ad0f8ba7548428d93",
      "transactionIndex": "0x0",
      "blockHash": "0xa64086c56846371d4d010a42f7c11f19c6cd159fd3685e8abf21b1eaf714ff0e",
      "blockNumber": "0x8ce172",
      "gasUsed": "0xbee7",
      "effectiveGasPrice": "0xf425a",
      "blobGasPrice": "0x39",
      "from": "0x20f325b0d94a084ad6d0eafa877f3b7cc94a5184",
      "to": "0x07088757f513c5e48aebb66f0a67f76260a737b4",
      "contractAddress": null
    },
    {
      "status": "0x1",
      "cumulativeGasUsed": "0x4beec",
      "logs": [
        {
          "address": "0xe03a1074c86cfedd5c142c4f04f1a1536e203543",
          "topics": [
            "0xf208f4912782fd25c7f114ca3723a2d5dd6f3bcc3ac8db5af63baa85f711d5ec",
            "0x47daa5a605a77e02270831ed76e80984f489bdd744494177fde0f2f7816564aa",
            "0x00000000000000000000000059668e475a7498ab1bff12b5d55b9a075b92349f"
          ],
          "data": "0xffffffffffffffffffffffffffffffffffffffffffffffffffffffffffffffc4000000000000000000000000000000000000000000000000000000000000003c000000000000000000000000000000000000000000000000016345785d8a00000000000000000000000000000000000000000000000000000000000000000000",
          "blockHash": "0x34e9c431349ad3468f7896b5e75405270f5960ddd2f5408af526860f37a36cd4",
          "blockNumber": "0x8ce173",
          "blockTimestamp": "0x68ccca6e",
          "transactionHash": "0xfb98b82a50f4a943cdb80394afdd75e0df9159faa03c7ee0854169764b29ab5d",
          "transactionIndex": "0x0",
          "logIndex": "0x0",
          "removed": false
        },
        {
          "address": "0x07088757f513c5e48aebb66f0a67f76260a737b4",
          "topics": [
            "0xddf252ad1be2c89b69c2b068fc378daa952ba7f163c4a11628f55a4df523b3ef",
            "0x00000000000000000000000020f325b0d94a084ad6d0eafa877f3b7cc94a5184",
            "0x000000000000000000000000e03a1074c86cfedd5c142c4f04f1a1536e203543"
          ],
          "data": "0x0000000000000000000000000000000000000000000000000001106d0acff4a7",
          "blockHash": "0x34e9c431349ad3468f7896b5e75405270f5960ddd2f5408af526860f37a36cd4",
          "blockNumber": "0x8ce173",
          "blockTimestamp": "0x68ccca6e",
          "transactionHash": "0xfb98b82a50f4a943cdb80394afdd75e0df9159faa03c7ee0854169764b29ab5d",
          "transactionIndex": "0x0",
          "logIndex": "0x1",
          "removed": false
        }
      ],
      "logsBloom": "0x00000000000000000000000000000000000100002000000000000000000000000000000000000000000000000000000000000100000000000000108080000000000000000040000000000008000000000000200000000000000000000000000000000000000000000000000080000000000000000000100000000010000000000000000001000000000010000000000000000000000010100000002000000000000004000000000000000000000000000000000000000000000000000000000000000002000000000000000000000004000000000000000000001000080000001000000000000000000000000000000004000000000000000000000000000000",
      "type": "0x2",
      "transactionHash": "0xfb98b82a50f4a943cdb80394afdd75e0df9159faa03c7ee0854169764b29ab5d",
      "transactionIndex": "0x0",
      "blockHash": "0x34e9c431349ad3468f7896b5e75405270f5960ddd2f5408af526860f37a36cd4",
      "blockNumber": "0x8ce173",
      "gasUsed": "0x4beec",
      "effectiveGasPrice": "0xf4257",
      "blobGasPrice": "0x32",
      "from": "0x20f325b0d94a084ad6d0eafa877f3b7cc94a5184",
      "to": "0x59668e475a7498ab1bff12b5d55b9a075b92349f",
      "contractAddress": null
    }
  ],
  "libraries": [],
  "pending": [],
  "returns": {},
  "timestamp": 1758272352983,
  "chain": 11155111,
  "commit": "2c4334f"
}