{
  "transactions": [
    {
      "hash": "0x21494487fc49d2dfa0f0b7c7944d10d6e7be39d5a349bf1bfaf2bad52b7ca352",
      "transactionType": "CALL",
      "contractName": null,
      "contractAddress": "0xc413050a7f581bdea919d6f6093476d44fd50e1d",
      "function": "deposit(uint256,address)",
      "arguments": [
        "100000000000000000",
        "0x1Ffc33f5E217b1CF95e713DB49Fcd86C8195666C"
      ],
      "transaction": {
        "from": "0x1ffc33f5e217b1cf95e713db49fcd86c8195666c",
        "to": "0xc413050a7f581bdea919d6f6093476d44fd50e1d",
        "gas": "0x26a74",
        "value": "0x16345785d8a0000",
        "input": "0x6e553f65000000000000000000000000000000000000000000000000016345785d8a00000000000000000000000000001ffc33f5e217b1cf95e713db49fcd86c8195666c",
        "nonce": "0x0",
        "chainId": "0xaa36a7"
      },
      "additionalContracts": [],
      "isFixedGasLimit": false
    }
  ],
  "receipts": [
    {
      "status": "0x1",
      "cumulativeGasUsed": "0x1bfc0",
      "logs": [
        {
          "address": "0x4337084d9e255ff0702461cf8895ce9e3b5ff108",
          "topics": [
            "0x2da466a7b24304f47e87fa2e1e5a81b9831ce54fec19055ce277ca2f39ba42c4",
            "0x000000000000000000000000c413050a7f581bdea919d6f6093476d44fd50e1d"
          ],
          "data": "0x000000000000000000000000000000000000000000000000016345785d8a0000",
          "blockHash": "0xdbe25dfd412b05b46b861a2b7e2b7982969f50cd0c0bc7d5d16027fa44e5a9a2",
          "blockNumber": "0x8ce178",
          "blockTimestamp": "0x68ccca8a",
          "transactionHash": "0x21494487fc49d2dfa0f0b7c7944d10d6e7be39d5a349bf1bfaf2bad52b7ca352",
          "transactionIndex": "0x0",
          "logIndex": "0x0",
          "removed": false
        },
        {
          "address": "0xc413050a7f581bdea919d6f6093476d44fd50e1d",
          "topics": [
            "0xddf252ad1be2c89b69c2b068fc378daa952ba7f163c4a11628f55a4df523b3ef",
            "0x0000000000000000000000000000000000000000000000000000000000000000",
            "0x0000000000000000000000001ffc33f5e217b1cf95e713db49fcd86c8195666c"
          ],
          "data": "0x000000000000000000000000000000000000000000000000016345785d8a0000",
          "blockHash": "0xdbe25dfd412b05b46b861a2b7e2b7982969f50cd0c0bc7d5d16027fa44e5a9a2",
          "blockNumber": "0x8ce178",
          "blockTimestamp": "0x68ccca8a",
          "transactionHash": "0x21494487fc49d2dfa0f0b7c7944d10d6e7be39d5a349bf1bfaf2bad52b7ca352",
          "transactionIndex": "0x0",
          "logIndex": "0x1",
          "removed": false
        },
        {
          "address": "0xc413050a7f581bdea919d6f6093476d44fd50e1d",
          "topics": [
            "0xdcbc1c05240f31ff3ad067ef1ee35ce4997762752e3a095284754544f4c709d7",
            "0x0000000000000000000000001ffc33f5e217b1cf95e713db49fcd86c8195666c",
            "0x0000000000000000000000001ffc33f5e217b1cf95e713db49fcd86c8195666c"
          ],
          "data": "0x000000000000000000000000000000000000000000000000016345785d8a0000000000000000000000000000000000000000000000000000016345785d8a0000",
          "blockHash": "0xdbe25dfd412b05b46b861a2b7e2b7982969f50cd0c0bc7d5d16027fa44e5a9a2",
          "blockNumber": "0x8ce178",
          "blockTimestamp": "0x68ccca8a",
          "transactionHash": "0x21494487fc49d2dfa0f0b7c7944d10d6e7be39d5a349bf1bfaf2bad52b7ca352",
          "transactionIndex": "0x0",
          "logIndex": "0x2",
          "removed": false
        }
      ],
      "logsBloom": "0x00000000000000000000000000000000000000000000000000000000000000000000002000000000000000000000000000008000000000000000000000000000000000400000000000000008000003100000000000000000000000000000200000000000020000000000000000000800000000000004000000000010000202000001000000000000800000000000000000000000000000000000000000000000000040000000000000000000000000000000000000000000000000000000000000002002000000000000000000000000000000000008200000000010000020000040000000000000000000000000000000000000000000000000000000000000",
      "type": "0x2",
      "transactionHash": "0x21494487fc49d2dfa0f0b7c7944d10d6e7be39d5a349bf1bfaf2bad52b7ca352",
      "transactionIndex": "0x0",
      "blockHash": "0xdbe25dfd412b05b46b861a2b7e2b7982969f50cd0c0bc7d5d16027fa44e5a9a2",
      "blockNumber": "0x8ce178",
      "gasUsed": "0x1bfc0",
      "effectiveGasPrice": "0xf424e",
      "blobGasPrice": "0x1c",
      "from": "0x1ffc33f5e217b1cf95e713db49fcd86c8195666c",
      "to": "0xc413050a7f581bdea919d6f6093476d44fd50e1d",
      "contractAddress": null
    }
  ],
  "libraries": [],
  "pending": [],
  "returns": {},
  "timestamp": 1758270819659,
  "chain": 11155111,
  "commit": "2c4334f"
}